:020000020000FC
:1000000025C003C103C103C103C103C103C103C1AF
:1000100003C191C191C191C1B6C1B6C101E00F93B5
:100020000CE10A95F1F70F910A95C9F708950F931E
:1000300004E6F5DF0F910A95D1F708951F93102F6D
:1000400004E6F5DF1A95E1F71F9108950FED0DBF56
:1000500000241124222433244424552466247724A4
:1000600088249924AA24BB24CC24DD24EE24FF2454
:10007000002711272227332744275527662777276C
:1000800088279927AA27BB27CC27DD27EE27FF271C
:1000900007E008BB07E007BB00E005BB00E004BBCE
:1000A00000E002BB00EE01BB07E109B908E90AB9AB
:1000B00000E007B90FEC06B900270093600000E0EC
:1000C00064D1102E01E061D1202E04E05ED1302EEB
:1000D00002E05BD1702EC1980AE0B0DFC0980AE060
:1000E000ADDFC2980AE0AADF12D2789400916100D5
:1000F000101610F0C19801C0C19AC09A0091640016
:10010000021508F0C098C29AE1FDC2980AE096DF95
:1001100053948394781411F4882410D0351411F476
:10012000552436D000916300B00F0027A01F009126
:100130006400D00F0027C01F9395D8CF00916400B2
:10014000021520F000916100101610F012D00895F1
:1001500001D00895433061F0423019F44395959AE7
:1001600007C0413019F44395969A02C04395979A77
:100170000895403061F0413019F44A95979807C0CE
:10018000423019F44A95969802C04A959598089578
:10019000FF3FD1F1F894DF92EF92FF93EF9301E0EC
:1001A000E00F0A95F01F0395E00F0A95F01FDF2E70
:1001B000EE2E00240A9495D1EF91FF91903049F0F2
:1001C000913039F097959F77A795B795C795D795B3
:1001D000F5CF99270B2FDF2EEE2E002E82D101E0D6
:1001E000E00F0A95F01F0D2FDF2EEE2E002E79D195
:1001F00001E0E00F0A95F01FEF90DF909927AA2702
:10020000BB27CC27DD277894089518951895189565
:1002100018951895189518950F930FB70F930CB163
:100220007894B0FA26F4E894B0F8D02E80C000306C
:1002300019F46894B0F87BC0013029F40D2DF894BE
:10024000D1D0789474C0023029F40D2DF894B0D038
:1002500078946DC0033011F4ED2C69C0043031F492
:10026000ED2C00E0F894A4D0789461C0053031F40E
:10027000ED2C01E0F8949CD0789459C0063059F4E4
:10028000F8941F932F933F932FD13F912F911F915C
:10029000A5D078944CC0073049F401E09FD01F935B
:1002A00011E008B3012708BB1F9141C0083021F4B9
:1002B0000091610093D03BC0093021F400916200AD
:1002C0008DD035C00A3021F40091630087D02FC053
:1002D0000B3021F40091640081D029C00C3029F446
:1002E0000F2F7CD00E2F7AD022C00D3011F4FFD00A
:1002F0001EC00E3011F4F894A9CE0F3089F4F89492
:100300001F932F933F93EE24EFD068D001E08FDE50
:10031000E394D1F73F912F911F91D394789407C024
:10032000003129F4F894DD2459D0789400C00F915D
:100330000FBF0F911895189518950F930FB70F933E
:100340001F932F93EF93FF93789420916000E1E641
:10035000E20FFF2704B115B117950795179507957B
:1003600000832395E53609F4222727B920936000FE
:1003700006B1006406B9FF91EF912F911F910F9183
:100380000FBF0F91189518951895DF92EF921F9354
:100390002F933F93DD24DA94E02EE394E394E394E7
:1003A000E394A2D03F912F911F91EF90DF90089599
:1003B0000F92DF92EF921F932F933F930E2CDD2429
:1003C000DA94E02EE394E394E394E3948AD03F91AB
:1003D0002F911F91EF90DF900F9008955D9BFECFBE
:1003E0000CB90895D2DFFADF089512E01A95F1F7FB
:1003F000089511E01A95F1F708958C9A8B98F5DF1E
:100400008C98F7DF022F8B9AF4DF0894001F01C04D
:10041000000F59F08C9A18F400008B9802C08B9A48
:1004200000C0E3DF8C98E1DFF3CF8C9A8B98DDDF9F
:100430008C98849BFECF889483990894D6DF089586
:1004400020FFE3CF331F01E08C9ACFDF8C98CDDF04
:10045000889483990894001FB8F78C9A379510F404
:100460008B9801C08B9AC1DF8C98849BFECFBDDF37
:1004700008958C9A8B9AB9DF8C98BBDF8B98B5DF87
:10048000089520EABFDF0D2DDBDF0E2DD9DF002D13
:10049000D7DFEFDF06E0CBDD089522EAB3DF0D2DD5
:1004A000CFDF0E2DCDDF002DCBDFE3DF06E0BFDD9C
:1004B000089520EAA7DF0D2DC3DF0E2DC1DF21EA4D
:1004C0009CDF0894BDDFD5DF089522EA9BDF0D2D68
:1004D000B7DF0E2DB5DF23EA90DF0894B1DFC9DF67
:1004E0000895D7FECECFD9CFD7FEE3CFEECFF89485
:1004F0001F932F933F93FF27EE27DD24EE24002444
:100500000A94EFDF3F912F911F9178940895FF2770
:10051000EE27FF3F69F0DF2EEE2EE6DF0F3F41F0C2
:1005200001E0E00F0A95F01FC29AF2FDC298F1CFE8
:0A05300000270A950A95E0230895BC
:00000001FF
